:100000000C9462040C9486090C947D040C947D0479
:100010000C947D040C947D040C947D040C947D045C
:100020000C947D040C947D040C947D040C947D044C
:100030000C947D040C947D040C947D040C947D043C
:100040000C947D040C947D040C947D040C947D042C
:100050000C947D043A0440101214328017161804D0
:1000600019021A7B03060C043E19703A713572119D
:1000700073F1A2027A207B1C7C287D3C7E557F6830
:10008000807681808288838F849685A386AF87C49B
:1000900088D789E813E0000010000D401428A5055A
:1000A000AB072465253326E39F78A068A103A6DF6C
:1000B000A7DFA8F0A990AA9413E50E610F4B1602D2
:1000C0001E37210222912907330B350B371D38715A
:1000D000392A3C784D404E2069006B4A74198D4F87
:1000E0008E008F0090009100920096009A80B0845C
:1000F000B10CB20EB382B80A431444F045344658EA
:100100004728483A59885A885B445C675D495E0EC7
:10011000640465206605940495086C0A6D556E119B
:100120006F9F6A400140024013E74F8050805100AA
:100130005222535E5480589E41083F00750576E177
:100140004C0077013DC24B09C96041385645341116
:100150003B02A48996009730982099309A849B2975
:100160009C039D4C9E3F78047901C8F0790FC8002C
:100170007910C87E790AC880790BC801790CC80F3C
:10018000790DC8207909C8807902C8C07903C840B0
:100190007905C83079263BC200000000000000004D
:1001A000000000000000000000000000000000004F
:1001B000000000000000000000000000000000003F
:1001C000000000000000000000000000000000002F
:1001D000000000000000000000000000000000001F
:1001E000000000000000000000000000000000000F
:1001F00000000000000000000000000000000000FF
:1002000000000000000000000000000000000000EE
:1002100000000000000000000000000000000000DE
:1002200000000000000000000000000000000000CE
:1002300000000000000000000000000000000000BE
:1002400000000000000000000000000000000000AE
:10025000000000000000000000000000000000009E
:10026000000000000000000000000000000000008E
:10027000000000000000000000000000000000007E
:10028000000000000000000000000000000000006E
:10029000000000000000000000000000000000005E
:1002A000000000000000000000000000000000004E
:1002B000000000000000000000000000000000003E
:1002C000000000000000000000000000000000002E
:1002D000000000000000000000000000000000001E
:1002E0000000000000000000183C3C3C18180018FA
:1002F00018000000000000006666660000000000B4
:10030000000000000000000036367F3636367F36AB
:1003100036000000000018183C666030180C0666B5
:100320003C18180000000070D8DA760C18306E5BAC
:100330001B0E000000000000386C6C38606F6666B1
:100340003B0000000000000018181800000000002A
:1003500000000000000000000C1818303030303071
:1003600018180C00000000003018180C0C0C0C0CB5
:1003700018183000000000000000361C7F1C3600FA
:100380000000000000000000000018187E1818008F
:1003900000000000000000000000000000001C1C25
:1003A0000C180000000000000000007E00000000AB
:1003B00000000000000000000000000000001C1C05
:1003C0000000000000000006060C0C181830306019
:1003D000600000000000001E333737333B3B331E04
:1003E000000000000000000C1C7C0C0C0C0C0C0C21
:1003F000000000000000003C6666060C1830607EBD
:10040000000000000000003C6666061C0666663CB4
:10041000000000000000003030363636667F0606E9
:10042000000000000000007E6060607C06060C7822
:10043000000000000000001C18307C666666663C08
:10044000000000000000007E060C0C181830303050
:10045000000000000000003C6666763C6E66663C6C
:10046000000000000000003C666666663E0C18381E
:100470000000000000000000001C1C0000001C1C0C
:100480000000000000000000001C1C0000001C1CFC
:100490000C180000000000060C18306030180C0624
:1004A000000000000000000000007E007E00000050
:1004B000000000000000006030180C060C183060CE
:1004C000000000000000003C66660C1818001818B8
:1004D000000000000000007EC3C3CFDBDBCFC07F85
:1004E00000000000000000183C6666667E666666D6
:1004F000000000000000007C6666667C6666667C24
:10050000000000000000003C666660606066663CBB
:1005100000000000000000786C66666666666C7815
:10052000000000000000007E6060607C6060607E13
:10053000000000000000007E6060607C6060606021
:10054000000000000000003C666660606E66663E6B
:1005500000000000000000666666667E66666666ED
:10056000000000000000003C181818181818183C6B
:10057000000000000000003C666660606E66663E3B
:100580000000000000000066666C6C786C6C6666AB
:100590000000000000000060606060606060607EDD
:1005A000000000000000006363776B6B6B636363A4
:1005B000000000000000006363737B6F6763636388
:1005C000000000000000003C666666666666663CE9
:1005D000000000000000007C6666667C6060606071
:1005E000000000000000003C666666666666663CC9
:1005F0000C0600000000007C6666667C6C66666621
:10060000000000000000003C666030180C06663CEC
:10061000000000000000007E18181818181818189C
:100620000000000000000066666666666666663C5E
:1006300000000000000000666666666666663C189C
:10064000000000000000006363636B6B6B3636369E
:100650000000000000000066663418182C6666660C
:1006600000000000000000666666663C1818181856
:10067000000000000000007E06060C183060607E5E
:10068000000000000000003C3030303030303030AE
:1006900030303C000000006060303018180C0C0650
:1006A000060000000000003C0C0C0C0C0C0C0C0CA8
:1006B0000C0C3C0000183C6600000000000000002C
:1006C000000000000000000000000000000000002A
:1006D0000000FF000038180C0000000000000000BF
:1006E0000000000000000000003C06063E66663E7A
:1006F0000000000000000060607C66666666667C44
:100700000000000000000000003C66606060663C85
:100710000000000000000006063E66666666663E53
:100720000000000000000000003C66667E60603C47
:10073000000000000000001E3030307E30303030CD
:100740000000000000000000003E66666666663E2F
:1007500006067C0000000060607C66666666666671
:100760000000000000001818007818181818187EEB
:100770000000000000000C0C003C0C0C0C0C0C0CDD
:100780000C0C7800000000606066666C786C666631
:100790000000000000000078181818181818187EBB
:1007A0000000000000000000007E6B6B6B6B6B6351
:1007B0000000000000000000007C66666666666659
:1007C0000000000000000000003C66666666663CB3
:1007D0000000000000000000007C66666666667C23
:1007E0006060600000000000003E66666666663E6F
:1007F000060606000000000000666E706060606023
:100800000000000000000000003E60603C06067C26
:100810000000000000000030307E30303030301EEC
:100820000000000000000000006666666666663E26
:1008300000000000000000000066666666663C1866
:10084000000000000000000000636B6B6B6B36362D
:1008500000000000000000000066663C183C666670
:100860000000000000000000006666666666663CE8
:100870000C18F00000000000007E060C1830607EAE
:10088000000000000000000C181818306030181824
:10089000180C00000000001818181818181818185C
:1008A00018181800000000301818180C060C18183A
:1008B0001830000000000071DB8E00000000000016
:1008C0000000000011241FBECFE5D8E0DEBFCDBF81
:1008D00010E0A0E6B0E0EEE5F4E102C005900D9274
:1008E000A23CB107D9F710E0A2ECB0E001C01D9224
:1008F000A23CB107E1F70C94E5090C94000084B325
:10090000836084BB85B3836085BB0895A99A84E620
:1009100090E00E944206A89A84E690E00E94420677
:10092000A99884E690E00E944206A89884E690E0A8
:100930000E9442060895A99884E690E00E9442062B
:10094000A89A84E690E00E944206A99A84E690E084
:100950000E9442060895A99A84E690E00E94420609
:10096000A89A84E690E00E944206A89884E690E067
:100970000E944206A99884E690E00E9442060895EB
:100980000F931F93CF93DF93082FC0E0D0E017E0C1
:10099000802F99270C2E02C0880F991F0A94E2F726
:1009A00087FF02C0A99A01C0A99884E690E00E943E
:1009B0004206A89A84E690E00E944206A89884E63F
:1009C00090E00E9442061150219617FFE1CF84E685
:1009D00090E00E944206A19884E690E00E944206C0
:1009E000A89A88EE93E00E944206999B02C0C0E05C
:1009F00001C0C1E0A89884E690E00E944206A19A56
:100A00008C2F9927DF91CF911F910F9108951F93FC
:100A1000CF93C0E0A19884E690E00E94420618E0DF
:100A200084E690E00E944206A89A84E690E00E9444
:100A30004206CC0F9999CF5FA89884E690E00E9477
:100A40004206115069F78C2F9927CF911F91089575
:100A5000959A08951F93CF93C82F162F0E9486044E
:100A600082E40E94C004882391F084E690E00E9412
:100A700042068C2F0E94C004882349F084E690E04F
:100A80000E944206812F0E94C004882329F40E94FC
:100A90009B0480E090E004C00E949B0481E090E011
:100AA000CF911F9108950F931F93CF93C82F8B0160
:100AB0000E94860482E40E94C0048823B1F084E688
:100AC00090E00E9442068C2F0E94C004882369F0A7
:100AD0000E949B0484E690E00E9442060E948604E5
:100AE00083E40E94C004882329F40E949B0480E0D0
:100AF00090E00EC084E690E00E9442060E94070546
:100B0000F80180830E94AB040E949B0481E090E086
:100B1000CF911F910F910895AF92BF92CF92DF9224
:100B2000EF92FF920F931F93CF93DF93CDB7DEB772
:100B300022970FB6F894DEBF0FBECDBF7C015B01DC
:100B40008A010E0D1F1D6B01C20ED31EC20ED31ED5
:100B5000BE016F5F7F4F83E00E9453058981807FD4
:100B60008983BE016E5F7F4F82E30E9453059A81A5
:100B7000907C9A83802F8770880F880F880F982B1E
:100B80008E2D8770982B692F82E30E942A0588EFAB
:100B900097E0E822F92233E0F694E7943A95E1F7FA
:100BA0006E2D87E10E942A05087F177023E01695B5
:100BB00007952A95E1F7602F88E10E942A059C2D70
:100BC0009370990F990F8981892B9A2D9370892B96
:100BD000682F83E00E942A05B694A794B694A79440
:100BE0006A2D89E10E942A05D694C794D694C794A9
:100BF0006C2D8AE10E942A0522960FB6F894DEBF7A
:100C00000FBECDBFDF91CF911F910F91FF90EF905D
:100C1000DF90CF90BF90AF9008950F931F93CF9325
:100C2000DF93C0E0D0E00E947F0460E882E10E9490
:100C30002A05882329F4CE0120C080E090E01DC061
:100C40008AE090E00E944806CC5ADF4F8E010F5F89
:100C50001F4FF8018491FE019491682F892F0E9403
:100C60002A05882351F30E5F1F4F2296F2E0C23D02
:100C7000DF0779F370F381E090E0DF91CF911F916E
:100C80000F91089501972FEF8F3F9207D9F708959D
:100C9000CF93DF93EC0121978FEFCF3FD80749F037
:100CA00084E690E00E94420621978FEFCF3FD8075D
:100CB000B9F7DF91CF9108959C01C29AAF9AAE988F
:100CC000C39A832F99278BBBC398C39A2BBBC39816
:100CD000AE9A08959C01C29AAF98AE98C39A832F9A
:100CE00099278BBBC398C39A2BBBC398AE9A089520
:100CF0000F931F938B010E946A06C8010E945C0635
:100D00001F910F910895EF92FF920F931F93CF932E
:100D1000DF93EC0160E070E080E290E00E947806F2
:100D20006FE371E081E290E00E94780660E070E09D
:100D300080E590E00E9478066FEE70E081E590E03B
:100D40000E94780660E070E082E590E00E947806FC
:100D50006FE371E083E590E00E94780682E290E024
:100D60000E946A062FEFE22E2BE2F22E21E0022FE4
:100D7000112DCE010E945C060894E108F1080109DA
:100D8000110917FFF6CFDF91CF911F910F91FF90BF
:100D9000EF9008958E9AA69AA79ABB9ABA9AB99A92
:100DA000C19888EC90E00E944806C19A88EC90E0D7
:100DB0000E94480660E070E081E090E00E947806C2
:100DC00060E077E082E090E00E94780668E170E100
:100DD00083E090E00E94780660E070E084E090E0BC
:100DE0000E94780667E072E088E090E00E94780652
:100DF00060E070E089E090E00E94780660E070E0DA
:100E00008AE090E00E94780660E070E08CE090E07C
:100E10000E94780660E070E08DE090E00E94780625
:100E200060E070E08FE090E00E94780660E070E0A3
:100E300080E190E00E94780667E070E081E190E058
:100E40000E94780660E070E082E190E00E947806FF
:100E500060E073E183E190E00E94780688E893E126
:100E60000E94480660E972E180E190E00E94780605
:100E700067E275E081E190E00E94780684E690E008
:100E80000E94480668E170E082E190E00E947806E6
:100E900084E690E00E94480660E070E183E190E023
:100EA0000E9478066EE170E089E290E00E94780688
:100EB0006DE070E08BE290E00E94780684E690E0BE
:100EC0000E94480660E070E080E290E00E947806B0
:100ED0006FE371E081E290E00E94780664E070E0E8
:100EE00080E390E00E94780667E070E081E390E0A4
:100EF0000E94780666E070E082E390E00E94780647
:100F000066E072E085E390E00E94780668E074E0B5
:100F100086E390E00E94780667E075E087E390E062
:100F20000E94780660E072E088E390E00E94780614
:100F300067E077E089E390E00E94780664E075E07E
:100F40008CE390E00E94780662E07FE08DE390E021
:100F50000E94780660E070E080E590E00E947806EC
:100F60006FEE70E081E590E00E94780660E070E04E
:100F700082E590E00E9478066FE371E083E590E0FF
:100F80000E94780660E077E280E690E00E947806B2
:100F900061E070E081E690E00E94780660E070E039
:100FA0008AE690E00E94780660E070E080E890E0D9
:100FB0000E94780660E070E081E890E00E94780688
:100FC00060E070E082E890E00E94780660E070E007
:100FD00083E890E00E94780660E070E084E890E0AA
:100FE0000E94780660E070E085E890E00E94780654
:100FF00060E170E080E990E00E94780660E076E0D1
:1010000082E990E00E94780663E070E083E990E076
:101010000E94780660E171E085E990E00E94780620
:1010200060E070E087E990E00E94780660E070E0A0
:1010300088E990E00E94780663E771E087E090E03D
:101040000E94780680E098EF0E94830684EF91E08A
:101050000E944806969A0895BF92CF92DF92EF922F
:10106000FF920F931F93CF93B82E6B017A0182E208
:1010700090E00E946A0600E0EB2DFF2734E0EE0FBF
:10108000FF1F3A95E1F7E00FF11DEC52FF4FC491BD
:1010900017E0C7FF02C0C60101C0C7010E945C067D
:1010A000CC0F115017FFF5CF0F5F003128F3CF9110
:1010B0001F910F91FF90EF90DF90CF90BF90089518
:1010C0001F93162F9927BC0180E290E00E947806BA
:1010D000812F9927BC0181E290E00E9478061F9140
:1010E0000895BF92CF92DF92EF92FF920F931F93DA
:1010F000182F6B01B42E7901822F861B895C682F13
:10110000812F0E946008012F1127B80180E590E02F
:101110000E9478060B0D111D01501040B80181E5A9
:1011200090E00E94780688E391E08C199D09BC014B
:1011300082E590E00E947806EC18FD0887E391E0D4
:10114000E80EF91EB70183E590E00E9478061F9132
:101150000F91FF90EF90DF90CF90BF900895BF92D6
:10116000CF92DF92EF92FF920F931F93CF93DF9373
:10117000FC01B62E7A016901DA018C918823A1F075
:10118000EF0128E030E04FE0BE018B2D0E94710896
:10119000A801B601F70181917F010E942C082896D1
:1011A000D7018C91882369F7DF91CF911F910F911F
:1011B000FF90EF90DF90CF90BF900895AF92BF92D5
:1011C000CF92DF92EF92FF920F931F9360E070E057
:1011D00080E290E00E9478066FE371E081E290E0A7
:1011E0000E947806EE24FF24870160E070E080E52D
:1011F00090E00E9478066FEE70E081E590E00E943A
:10120000780660E070E082E590E00E9478066FE387
:1012100071E083E590E00E94780682E290E00E940F
:101220006A064FEFA42E4BE2B42E41E0C42ED12C1F
:10123000E114F1040105110521F48FE190E00E9411
:101240005C0681E0E816F1040105110521F480E057
:1012500098EF0E945C0682E0E816F1040105110592
:1012600021F480EE97E00E945C0683E0E816F1042A
:101270000105110521F48FEF97E00E945C0684E0E0
:10128000E816F1040105110521F48FE198EF0E94A1
:101290005C0685E0E816F1040105110521F480EEF5
:1012A0009FEF0E945C0686E0E816F1040105110537
:1012B00021F480E090E00E945C060894A108B10847
:1012C000C108D108D7FEB4CF84E690E00E9448065A
:1012D0000894E11CF11C011D111D87E0E816F104C2
:1012E0000105110508F481CF1F910F91FF90EF9038
:1012F000DF90CF90BF90AF9008958FB780688FBF79
:1013000085B7836085BF80E48BBF08951F920F92DD
:101310000FB60F9211242F933F934F935F936F93C8
:101320007F938F939F93AF93BF93EF93FF93F89423
:10133000C098979A8FEF8ABBC098979A8ABB60E053
:1013400070E080E290E00E9478066FE371E081E255
:1013500090E00E94780660E070E080E590E00E94F6
:1013600078066FEE70E081E590E00E94780660E01C
:1013700070E082E590E00E9478066FE371E083E51B
:1013800090E00E94780668E270E183E090E00E94BD
:10139000780682E290E00E946A06AE981ABAAF9A86
:1013A000C39A9798C09A7894FF91EF91BF91AF91AB
:1013B0009F918F917F916F915F914F913F912F916D
:1013C0000F900FBE0F901F901895CFE5D8E0DEBFAD
:1013D000CDBFB89A8F9A8D9AC098979A0E94280587
:1013E0008FEF8ABB0E94CA0600E018EF20E030E0D1
:1013F00040E650E06CE384E190E00E94AF0820E01A
:1014000030E048E750E06CE484E190E00E94AF08EF
:1014100080E197E20E94480620E030E04DE950E08C
:1014200060E684E190E00E94AF080E940D068130E2
:10143000E1F700E018EF20E030E04FEA50E060E62E
:1014400084E190E00E94AF0880E197E20E944806A4
:0E145000C8010E9483061ABA0E947D09FFCFD0
:10145E004775616E66755F57616E6720203230305A
:10146E00392D30382D32360041746D656761333257
:10147E00202620494C493933323520464F52204FD1
:10148E00563736363020524556322E30004F5637AC
:10149E0036363020496E69742E2E2E2E2E2E004F8B
:1014AE00563736363020496E69742020304B202056
:0214BE0000002C
:00000001FF
